{"abi":[{"type":"constructor","inputs":[],"stateMutability":"nonpayable"},{"type":"function","name":"depositUSDT","inputs":[{"name":"amount","type":"uint256","internalType":"uint256"},{"name":"description","type":"string","internalType":"string"}],"outputs":[],"stateMutability":"nonpayable"},{"type":"function","name":"emergencyWithdraw","inputs":[],"outputs":[],"stateMutability":"nonpayable"},{"type":"function","name":"getAvailableBalance","inputs":[{"name":"userAddress","type":"address","internalType":"address"}],"outputs":[{"name":"","type":"uint256","internalType":"uint256"}],"stateMutability":"view"},{"type":"function","name":"getContractStats","inputs":[],"outputs":[{"name":"_totalUsers","type":"uint256","internalType":"uint256"},{"name":"_totalDeposits","type":"uint256","internalType":"uint256"},{"name":"_totalWithdrawals","type":"uint256","internalType":"uint256"},{"name":"_contractBalance","type":"uint256","internalType":"uint256"},{"name":"_totalTransactions","type":"uint256","internalType":"uint256"}],"stateMutability":"view"},{"type":"function","name":"getTransaction","inputs":[{"name":"transactionId","type":"uint256","internalType":"uint256"}],"outputs":[{"name":"","type":"tuple","internalType":"struct OnrampEcuador.Transaction","components":[{"name":"user","type":"address","internalType":"address"},{"name":"amount","type":"uint256","internalType":"uint256"},{"name":"timestamp","type":"uint256","internalType":"uint256"},{"name":"isDeposit","type":"bool","internalType":"bool"},{"name":"description","type":"string","internalType":"string"}]}],"stateMutability":"view"},{"type":"function","name":"getUserBalance","inputs":[{"name":"userAddress","type":"address","internalType":"address"}],"outputs":[{"name":"","type":"tuple","internalType":"struct OnrampEcuador.UserBalance","components":[{"name":"deposited","type":"uint256","internalType":"uint256"},{"name":"withdrawn","type":"uint256","internalType":"uint256"},{"name":"lastDeposit","type":"uint256","internalType":"uint256"},{"name":"lastWithdrawal","type":"uint256","internalType":"uint256"},{"name":"hasDeposited","type":"bool","internalType":"bool"}]}],"stateMutability":"view"},{"type":"function","name":"getUserTransactions","inputs":[{"name":"userAddress","type":"address","internalType":"address"},{"name":"limit","type":"uint256","internalType":"uint256"}],"outputs":[{"name":"","type":"uint256[]","internalType":"uint256[]"}],"stateMutability":"view"},{"type":"function","name":"owner","inputs":[],"outputs":[{"name":"","type":"address","internalType":"address"}],"stateMutability":"view"},{"type":"function","name":"pause","inputs":[],"outputs":[],"stateMutability":"nonpayable"},{"type":"function","name":"paused","inputs":[],"outputs":[{"name":"","type":"bool","internalType":"bool"}],"stateMutability":"view"},{"type":"function","name":"renounceOwnership","inputs":[],"outputs":[],"stateMutability":"nonpayable"},{"type":"function","name":"sendUSDTToAddress","inputs":[{"name":"recipient","type":"address","internalType":"address"},{"name":"amount","type":"uint256","internalType":"uint256"},{"name":"description","type":"string","internalType":"string"}],"outputs":[],"stateMutability":"nonpayable"},{"type":"function","name":"setUSDTToken","inputs":[{"name":"tokenAddress","type":"address","internalType":"address"}],"outputs":[],"stateMutability":"nonpayable"},{"type":"function","name":"totalDeposits","inputs":[],"outputs":[{"name":"","type":"uint256","internalType":"uint256"}],"stateMutability":"view"},{"type":"function","name":"totalUsers","inputs":[],"outputs":[{"name":"","type":"uint256","internalType":"uint256"}],"stateMutability":"view"},{"type":"function","name":"totalWithdrawals","inputs":[],"outputs":[{"name":"","type":"uint256","internalType":"uint256"}],"stateMutability":"view"},{"type":"function","name":"transactionCounter","inputs":[],"outputs":[{"name":"","type":"uint256","internalType":"uint256"}],"stateMutability":"view"},{"type":"function","name":"transactions","inputs":[{"name":"","type":"uint256","internalType":"uint256"}],"outputs":[{"name":"user","type":"address","internalType":"address"},{"name":"amount","type":"uint256","internalType":"uint256"},{"name":"timestamp","type":"uint256","internalType":"uint256"},{"name":"isDeposit","type":"bool","internalType":"bool"},{"name":"description","type":"string","internalType":"string"}],"stateMutability":"view"},{"type":"function","name":"transferOwnership","inputs":[{"name":"newOwner","type":"address","internalType":"address"}],"outputs":[],"stateMutability":"nonpayable"},{"type":"function","name":"unpause","inputs":[],"outputs":[],"stateMutability":"nonpayable"},{"type":"function","name":"usdtToken","inputs":[],"outputs":[{"name":"","type":"address","internalType":"contract ERC20"}],"stateMutability":"view"},{"type":"function","name":"userBalances","inputs":[{"name":"","type":"address","internalType":"address"}],"outputs":[{"name":"deposited","type":"uint256","internalType":"uint256"},{"name":"withdrawn","type":"uint256","internalType":"uint256"},{"name":"lastDeposit","type":"uint256","internalType":"uint256"},{"name":"lastWithdrawal","type":"uint256","internalType":"uint256"},{"name":"hasDeposited","type":"bool","internalType":"bool"}],"stateMutability":"view"},{"type":"event","name":"DepositMade","inputs":[{"name":"user","type":"address","indexed":true,"internalType":"address"},{"name":"amount","type":"uint256","indexed":false,"internalType":"uint256"},{"name":"description","type":"string","indexed":false,"internalType":"string"},{"name":"timestamp","type":"uint256","indexed":false,"internalType":"uint256"}],"anonymous":false},{"type":"event","name":"EmergencyWithdraw","inputs":[{"name":"owner","type":"address","indexed":true,"internalType":"address"},{"name":"amount","type":"uint256","indexed":false,"internalType":"uint256"},{"name":"timestamp","type":"uint256","indexed":false,"internalType":"uint256"}],"anonymous":false},{"type":"event","name":"OwnershipTransferred","inputs":[{"name":"previousOwner","type":"address","indexed":true,"internalType":"address"},{"name":"newOwner","type":"address","indexed":true,"internalType":"address"}],"anonymous":false},{"type":"event","name":"Paused","inputs":[{"name":"account","type":"address","indexed":false,"internalType":"address"}],"anonymous":false},{"type":"event","name":"USDTTokenSet","inputs":[{"name":"tokenAddress","type":"address","indexed":true,"internalType":"address"}],"anonymous":false},{"type":"event","name":"Unpaused","inputs":[{"name":"account","type":"address","indexed":false,"internalType":"address"}],"anonymous":false},{"type":"event","name":"WithdrawalMade","inputs":[{"name":"user","type":"address","indexed":true,"internalType":"address"},{"name":"amount","type":"uint256","indexed":false,"internalType":"uint256"},{"name":"description","type":"string","indexed":false,"internalType":"string"},{"name":"timestamp","type":"uint256","indexed":false,"internalType":"uint256"}],"anonymous":false},{"type":"error","name":"EnforcedPause","inputs":[]},{"type":"error","name":"ExpectedPause","inputs":[]},{"type":"error","name":"OwnableInvalidOwner","inputs":[{"name":"owner","type":"address","internalType":"address"}]},{"type":"error","name":"OwnableUnauthorizedAccount","inputs":[{"name":"account","type":"address","internalType":"address"}]},{"type":"error","name":"ReentrancyGuardReentrantCall","inputs":[]}],"bytecode":{"object":"0x60808060405234610089573315610074575f8054336001600160a01b031982168117835560405192916001600160a01b03167f8be0079c531659141344cd1fd0a4f28419497f9722a3daafe3b4186f6b6457e08380a360018055806005558060065580600755600855611798908161008e8239f35b631e4fbdf760e01b81525f6004820152602490fd5b5f80fdfe60406080815260049081361015610014575f80fd5b5f91823560e01c806312d4912c14610f4357806314e887e814610f2457806326224c6414610ebd57806333ea3dc814610da45780633f4ba83a14610d3b5780634773489214610c845780635c975abb14610c605780636046462714610c4157806366e226bd14610bbd5780636c24a76f14610b90578063715018a614610b365780637380626b14610a265780637d88209714610a075780638456cb59146109ac5780638da5cb5b146109845780639ace38c21461090a578063a98ad46c146108dd578063bff1f9e1146108be578063c92c7a8a146103f6578063db2e21bc14610256578063dfe6b5d6146101995763f2fde38b14610110575f80fd5b34610195576020366003190112610195576101296112ee565b906101326114c7565b6001600160a01b0391821692831561017f57505082546001600160a01b0319811683178455167f8be0079c531659141344cd1fd0a4f28419497f9722a3daafe3b4186f6b6457e08380a380f35b51631e4fbdf760e01b8152908101849052602490fd5b8280fd5b509034610195578260031936011261019557600854916006549160075490602060018060a01b0360025460081c169360248351809681936370a0823160e01b835230908301525afa92831561024c578693610211575b5060a09550600554938151958652602086015284015260608301526080820152f35b9092506020813d8211610244575b8161022c60209383611338565b810103126102405760a0955051915f6101ef565b8580fd5b3d915061021f565b81513d88823e3d90fd5b508290346103f257816003193601126103f2576102716114c7565b60025460081c6001600160a01b03908116939061028f851515611530565b8151906370a0823160e01b8252308483015260209384836024818a5afa9283156103e85786936103b9575b508215610380578554845163a9059cbb60e01b81529083166001600160a01b0316918101918252602082018490529596859187919082908a90829060400103925af1948515610376577fbb757047c2b5f3974fe26b7c10f732e7bce710b0952a71082702781e62ae05959495610337918891610349575b506115d5565b8554169382519182524290820152a280f35b6103699150873d891161036f575b6103618183611338565b8101906115bd565b88610331565b503d610357565b83513d88823e3d90fd5b835162461bcd60e51b815290810185905260136024820152724e6f205553445420746f20776974686472617760681b6044820152606490fd5b9092508481813d83116103e1575b6103d18183611338565b81010312610240575191876102ba565b503d6103c7565b84513d88823e3d90fd5b5080fd5b50903461019557806003193601126101955760249067ffffffffffffffff9083359083358381116108ba5761042e903690870161135a565b9260018060a01b03958660025460081c169061044b821515611530565b610456851515611571565b60019660028854146108ab576002885561046e611664565b84516370a0823160e01b815233838201526020939084818481855afa90811561082f579088918d9161087a575b5010610839578551636eb1769f60e11b8152338482015230838201528481604481855afa90811561082f579088918d916107fa575b50106107c057908a848195949360648951809481936323b872dd60e01b8352338984015230888401528d60448401525af19081156107b6579a61052184928b9c9d889c9a9b9c9161079957506115d5565b338652818960039788885260ff8383832001541615610771575b909150208a81549061054c91611635565b9055338d528585528c8942912060020155896006549061056b91611635565b6006558c89519161057b83611308565b3383528d8784018d81528c8501924284528d6060870195848752608088019e8f526005548152888c52209551166bffffffffffffffffffffffff60a01b8654161785555190840155516002830155511515868201906105e5919060ff801983541691151516179055565b0195519182519586116107605750506105fe85546113ee565b601f811161071a575b5081601f85116001146106885750927f02a1e2b102b2abfec4db5b5403f79fe06aa66cfef8cf4fc1017e47655c9c8225969492819261067597958c9361067d575b5050828a1b925f19911b1c19161790555b610664600554611613565b600555519182913395429184611642565b0390a2805580f35b015191505f80610648565b9189949391601f198516878d52848d20948d905b828210610701575050918593917f02a1e2b102b2abfec4db5b5403f79fe06aa66cfef8cf4fc1017e47655c9c82259a98966106759a989694106106e8575b50505050811b019055610659565b01519060f8845f19921b161c191690555f8080806106da565b8484015187558d9890960195938401939081019061069c565b858b52828b20601f860160051c810191848710610756575b601f0160051c01908a905b82811061074b575050610607565b8c8155018a9061073d565b9091508190610732565b634e487b7160e01b8c52604190528afd5b61077c600854611613565b6008553381528888522001805460ff19168d17905581898e61053b565b6107b09150873d891161036f576103618183611338565b5f610331565b87513d87823e3d90fd5b5060169060649386519362461bcd60e51b855284015282015275496e73756666696369656e7420616c6c6f77616e636560501b6044820152fd5b809250868092503d8311610828575b6108138183611338565b81010312610824578790515f6104d0565b8b80fd5b503d610809565b87513d8e823e3d90fd5b5060199060649386519362461bcd60e51b85528401528201527f496e73756666696369656e7420555344542062616c616e6365000000000000006044820152fd5b809250868092503d83116108a4575b6108938183611338565b81010312610824578790515f61049b565b503d610889565b508351633ee5aeb560e01b8152fd5b8680fd5b5050346103f257816003193601126103f2576020906008549051908152f35b5050346103f257816003193601126103f257600254905160089190911c6001600160a01b03168152602090f35b509134610981576020366003190112610981578161097d918435815284602052209160018060a01b038354169260018101549461095560028301549160ff6003850154169301611426565b928051968796875260208701528501521515606084015260a0608084015260a08301906113b0565b0390f35b80fd5b5050346103f257816003193601126103f257905490516001600160a01b039091168152602090f35b5050346103f257816003193601126103f25760207f62e78cea01bee320cd4e420270b5ea74000d11b0c9f74754ebdbfc544b05a258916109ea6114c7565b6109f2611664565b600160ff19600254161760025551338152a180f35b5050346103f257816003193601126103f2576020906006549051908152f35b509034610195578060031936011261019557610a406112ee565b9060243592610a4e84611708565b92859286926005549660018060a01b03809416945b88811080610b2d575b15610ab457808a52826020528585858c20541614610a93575b610a8e90611613565b610a63565b95610aac8188610aa6610a8e948c61173a565b52611613565b969050610a85565b89888589610ac181611708565b92845b828110610b0f5750505090815192839260208080860192818752855180945286019401925b828110610af857505050500390f35b835185528695509381019392810192600101610ae9565b80610b1d610b28928461173a565b51610aa6828861173a565b610ac4565b50818710610a6c565b8334610981578060031936011261098157610b4f6114c7565b80546001600160a01b03198116825581906001600160a01b03167f8be0079c531659141344cd1fd0a4f28419497f9722a3daafe3b4186f6b6457e08280a380f35b5050346103f25760203660031901126103f257602090610bb6610bb16112ee565b611682565b9051908152f35b833461098157602036600319011261098157610bd76112ee565b610bdf6114c7565b6001600160a01b03811690610bf58215156114f2565b60028054610100600160a81b03191660089290921b610100600160a81b03169190911790557f95391658973a6a36647c3d60d4deb69ffdc73c99efe253581d14c45d0cd53a088280a280f35b5050346103f257816003193601126103f2576020906007549051908152f35b5050346103f257816003193601126103f25760209060ff6002541690519015158152f35b509034610195576020366003190112610195578060a093610ca36112ee565b8160808451610cb181611308565b82815282602082015282868201528260608201520152600180871b03168152600360205220815191610ce283611308565b815493848452600183015460208501908152608060ff6002860154938588019485526003870154966060890197885201541695019415158552825195865251602086015251908401525160608301525115156080820152f35b5034610195578260031936011261019557610d546114c7565b6002549060ff821615610d96575060ff1916600255513381527f5db9ee0a495bf2e6ff9c91a7834c1ba4fdd244a5e8aa4e537bd38aeae4b073aa90602090a180f35b8251638dfc202b60e01b8152fd5b5082346109815760209081600319360112610981578235606060808651610dca81611308565b8481528486820152848882015284838201520152600554811015610e7b5781859161097d94935284835220845193610e0185611308565b60018060a01b03958683541686526001830154848701908152610e4160028501549383890194855260ff6003870154169560608a01961515875201611426565b94608088019586528251988998828a52511690880152519086015251606085015251151560808401525160a08084015260c08301906113b0565b5050606492519162461bcd60e51b8352820152601a60248201527f5472616e73616374696f6e20646f6573206e6f742065786973740000000000006044820152fd5b5090346101955760203660031901126101955760a09281906001600160a01b03610ee56112ee565b16815260036020522080549260018201549260ff6002840154926003850154940154169381519586526020860152840152606083015215156080820152f35b5050346103f257816003193601126103f2576020906005549051908152f35b503461019557606036600319011261019557610f5d6112ee565b916024359067ffffffffffffffff906044358281116108ba57610f83903690860161135a565b91610f8c6114c7565b60025460081c6001600160a01b0390811696610fa9881515611530565b610fb4861515611571565b81811697610fc38915156114f2565b84516370a0823160e01b81523089820152602092908381602481865afa90811561082f579089918d916112bd575b501061127a57855163a9059cbb60e01b81526001600160a01b03909116818a01908152602081018990528b95949392839183919082908990829060400103925af1908115611270579061104a91869161125957506115d5565b61105687600754611635565b60075587855161106581611308565b8a81526110d3838201948a86528883019542875260608401918983528a608086019a8d8c526005548152878952209451166bffffffffffffffffffffffff60a01b855416178455519560019687850155516002840155511515600383019060ff801983541691151516179055565b01935197885193841161124657506110eb84546113ee565b601f8111611200575b5080601f84116001146111715750918080926111609695947f4ae6aa80dbb024db358be03c5297e3f94a650f38273d417ff13c012c572a1a249a8d94611166575b50501b915f199060031b1c19161790555b611151600554611613565b60055551928392429184611642565b0390a280f35b015192505f80611135565b919394959697601f198416868c52838c20938c905b8282106111e9575050917f4ae6aa80dbb024db358be03c5297e3f94a650f38273d417ff13c012c572a1a2499989795939185611160989694106111d1575b505050811b019055611146565b01515f1960f88460031b161c191690555f80806111c4565b808886978294978701518155019601940190611186565b848b52818b20601f850160051c81019183861061123c575b601f0160051c019083905b8281106112315750506110f4565b8c8155018390611223565b9091508190611218565b634e487b7160e01b8b526041905260248afd5b6107b09150833d851161036f576103618183611338565b86513d87823e3d90fd5b855162461bcd60e51b8152808a01849052601d60248201527f496e73756666696369656e7420636f6e74726163742062616c616e63650000006044820152606490fd5b809250858092503d83116112e7575b6112d68183611338565b81010312610824578890515f610ff1565b503d6112cc565b600435906001600160a01b038216820361130457565b5f80fd5b60a0810190811067ffffffffffffffff82111761132457604052565b634e487b7160e01b5f52604160045260245ffd5b90601f8019910116810190811067ffffffffffffffff82111761132457604052565b81601f820112156113045780359067ffffffffffffffff8211611324576040519261138f601f8401601f191660200185611338565b8284526020838301011161130457815f926020809301838601378301015290565b91908251928382525f5b8481106113da575050825f602080949584010152601f8019910116010190565b6020818301810151848301820152016113ba565b90600182811c9216801561141c575b602083101461140857565b634e487b7160e01b5f52602260045260245ffd5b91607f16916113fd565b9060405191825f825492611439846113ee565b9081845260019485811690815f146114a45750600114611464575b505061146292500383611338565b565b909391505f52602090815f20935f915b81831061148c57505061146293508201015f80611454565b85548884018501529485019487945091830191611474565b91505061146294506020925060ff191682840152151560051b8201015f80611454565b5f546001600160a01b031633036114da57565b60405163118cdaa760e01b8152336004820152602490fd5b156114f957565b60405162461bcd60e51b815260206004820152600f60248201526e496e76616c6964206164647265737360881b6044820152606490fd5b1561153757565b60405162461bcd60e51b81526020600482015260126024820152711554d115081d1bdad95b881b9bdd081cd95d60721b6044820152606490fd5b1561157857565b60405162461bcd60e51b815260206004820152601d60248201527f416d6f756e74206d7573742062652067726561746572207468616e20300000006044820152606490fd5b90816020910312611304575180151581036113045790565b156115dc57565b60405162461bcd60e51b815260206004820152600f60248201526e151c985b9cd9995c8819985a5b1959608a1b6044820152606490fd5b5f1981146116215760010190565b634e487b7160e01b5f52601160045260245ffd5b9190820180921161162157565b93929161165f9060409286526060602087015260608601906113b0565b930152565b60ff6002541661167057565b60405163d93c066560e01b8152600490fd5b60018060a01b03165f52600360205260405f20604051906116a282611308565b805491828152608060ff600460018501549485602086015260028101546040860152600381015460608601520154161515910152818110156116ea5781039081116116215790565b50505f90565b67ffffffffffffffff81116113245760051b60200190565b90611712826116f0565b61171f6040519182611338565b8281528092611730601f19916116f0565b0190602036910137565b805182101561174e5760209160051b010190565b634e487b7160e01b5f52603260045260245ffdfea26469706673582212202d30c7cd44897e7bd8d2d78c7c642b9d9bf1eabe844f15134446c5e00a60b8a064736f6c63430008140033","linkReferences":{}},"methodIdentifiers":{"depositUSDT(uint256,string)":"c92c7a8a","emergencyWithdraw()":"db2e21bc","getAvailableBalance(address)":"6c24a76f","getContractStats()":"dfe6b5d6","getTransaction(uint256)":"33ea3dc8","getUserBalance(address)":"47734892","getUserTransactions(address,uint256)":"7380626b","owner()":"8da5cb5b","pause()":"8456cb59","paused()":"5c975abb","renounceOwnership()":"715018a6","sendUSDTToAddress(address,uint256,string)":"12d4912c","setUSDTToken(address)":"66e226bd","totalDeposits()":"7d882097","totalUsers()":"bff1f9e1","totalWithdrawals()":"60464627","transactionCounter()":"14e887e8","transactions(uint256)":"9ace38c2","transferOwnership(address)":"f2fde38b","unpause()":"3f4ba83a","usdtToken()":"a98ad46c","userBalances(address)":"26224c64"},"id":27}