{"abi":[{"type":"constructor","inputs":[],"stateMutability":"nonpayable"},{"type":"function","name":"allowance","inputs":[{"name":"owner","type":"address","internalType":"address"},{"name":"spender","type":"address","internalType":"address"}],"outputs":[{"name":"","type":"uint256","internalType":"uint256"}],"stateMutability":"view"},{"type":"function","name":"approve","inputs":[{"name":"spender","type":"address","internalType":"address"},{"name":"value","type":"uint256","internalType":"uint256"}],"outputs":[{"name":"","type":"bool","internalType":"bool"}],"stateMutability":"nonpayable"},{"type":"function","name":"balanceOf","inputs":[{"name":"account","type":"address","internalType":"address"}],"outputs":[{"name":"","type":"uint256","internalType":"uint256"}],"stateMutability":"view"},{"type":"function","name":"burn","inputs":[{"name":"amount","type":"uint256","internalType":"uint256"}],"outputs":[],"stateMutability":"nonpayable"},{"type":"function","name":"burnFrom","inputs":[{"name":"from","type":"address","internalType":"address"},{"name":"amount","type":"uint256","internalType":"uint256"}],"outputs":[],"stateMutability":"nonpayable"},{"type":"function","name":"decimals","inputs":[],"outputs":[{"name":"","type":"uint8","internalType":"uint8"}],"stateMutability":"view"},{"type":"function","name":"getTokenInfo","inputs":[],"outputs":[{"name":"tokenName","type":"string","internalType":"string"},{"name":"tokenSymbol","type":"string","internalType":"string"},{"name":"tokenDecimals","type":"uint8","internalType":"uint8"},{"name":"tokenTotalSupply","type":"uint256","internalType":"uint256"}],"stateMutability":"view"},{"type":"function","name":"mint","inputs":[{"name":"to","type":"address","internalType":"address"},{"name":"amount","type":"uint256","internalType":"uint256"}],"outputs":[],"stateMutability":"nonpayable"},{"type":"function","name":"name","inputs":[],"outputs":[{"name":"","type":"string","internalType":"string"}],"stateMutability":"view"},{"type":"function","name":"owner","inputs":[],"outputs":[{"name":"","type":"address","internalType":"address"}],"stateMutability":"view"},{"type":"function","name":"renounceOwnership","inputs":[],"outputs":[],"stateMutability":"nonpayable"},{"type":"function","name":"symbol","inputs":[],"outputs":[{"name":"","type":"string","internalType":"string"}],"stateMutability":"view"},{"type":"function","name":"totalSupply","inputs":[],"outputs":[{"name":"","type":"uint256","internalType":"uint256"}],"stateMutability":"view"},{"type":"function","name":"transfer","inputs":[{"name":"to","type":"address","internalType":"address"},{"name":"value","type":"uint256","internalType":"uint256"}],"outputs":[{"name":"","type":"bool","internalType":"bool"}],"stateMutability":"nonpayable"},{"type":"function","name":"transferFrom","inputs":[{"name":"from","type":"address","internalType":"address"},{"name":"to","type":"address","internalType":"address"},{"name":"value","type":"uint256","internalType":"uint256"}],"outputs":[{"name":"","type":"bool","internalType":"bool"}],"stateMutability":"nonpayable"},{"type":"function","name":"transferOwnership","inputs":[{"name":"newOwner","type":"address","internalType":"address"}],"outputs":[],"stateMutability":"nonpayable"},{"type":"event","name":"Approval","inputs":[{"name":"owner","type":"address","indexed":true,"internalType":"address"},{"name":"spender","type":"address","indexed":true,"internalType":"address"},{"name":"value","type":"uint256","indexed":false,"internalType":"uint256"}],"anonymous":false},{"type":"event","name":"OwnershipTransferred","inputs":[{"name":"previousOwner","type":"address","indexed":true,"internalType":"address"},{"name":"newOwner","type":"address","indexed":true,"internalType":"address"}],"anonymous":false},{"type":"event","name":"TokensBurned","inputs":[{"name":"from","type":"address","indexed":true,"internalType":"address"},{"name":"amount","type":"uint256","indexed":false,"internalType":"uint256"},{"name":"timestamp","type":"uint256","indexed":false,"internalType":"uint256"}],"anonymous":false},{"type":"event","name":"TokensMinted","inputs":[{"name":"to","type":"address","indexed":true,"internalType":"address"},{"name":"amount","type":"uint256","indexed":false,"internalType":"uint256"},{"name":"timestamp","type":"uint256","indexed":false,"internalType":"uint256"}],"anonymous":false},{"type":"event","name":"Transfer","inputs":[{"name":"from","type":"address","indexed":true,"internalType":"address"},{"name":"to","type":"address","indexed":true,"internalType":"address"},{"name":"value","type":"uint256","indexed":false,"internalType":"uint256"}],"anonymous":false},{"type":"error","name":"ERC20InsufficientAllowance","inputs":[{"name":"spender","type":"address","internalType":"address"},{"name":"allowance","type":"uint256","internalType":"uint256"},{"name":"needed","type":"uint256","internalType":"uint256"}]},{"type":"error","name":"ERC20InsufficientBalance","inputs":[{"name":"sender","type":"address","internalType":"address"},{"name":"balance","type":"uint256","internalType":"uint256"},{"name":"needed","type":"uint256","internalType":"uint256"}]},{"type":"error","name":"ERC20InvalidApprover","inputs":[{"name":"approver","type":"address","internalType":"address"}]},{"type":"error","name":"ERC20InvalidReceiver","inputs":[{"name":"receiver","type":"address","internalType":"address"}]},{"type":"error","name":"ERC20InvalidSender","inputs":[{"name":"sender","type":"address","internalType":"address"}]},{"type":"error","name":"ERC20InvalidSpender","inputs":[{"name":"spender","type":"address","internalType":"address"}]},{"type":"error","name":"OwnableInvalidOwner","inputs":[{"name":"owner","type":"address","internalType":"address"}]},{"type":"error","name":"OwnableUnauthorizedAccount","inputs":[{"name":"account","type":"address","internalType":"address"}]}],"bytecode":{"object":"0x60803462000419576040906001600160401b03908083018281118282101762000405578352600a81526020906915195d1a195c881554d160b21b828201528351928484018481108282111762000405578552600493848152631554d11560e21b848201528251828111620003f2576003918254916001958684811c94168015620003e7575b88851014620003d4578190601f9485811162000381575b5088908583116001146200031e575f9262000312575b50505f1982861b1c191690861b1783555b8051938411620002ff5786548581811c91168015620002f4575b87821014620002e15782811162000299575b508591841160011462000232579383949184925f9562000226575b50501b925f19911b1c19161782555b33156200021057600554336001600160a01b0382167f8be0079c531659141344cd1fd0a4f28419497f9722a3daafe3b4186f6b6457e05f80a36001600160a81b0319163360ff60a01b191617600360a11b1760055560025464e8d4a5100092838201918210620001fd5750600255335f525f8152825f2082815401905582518281525f7fddf252ad1be2c89b69c2b068fc378daa952ba7f163c4a11628f55a4df523b3ef833393a3825191825242908201527f2e8ac5177a616f2aec08c3048f5021e4e9743ece034e8d83ba5caf76688bb475823392a251610c2f90816200041e8239f35b601190634e487b7160e01b5f525260245ffd5b505f6024925191631e4fbdf760e01b8352820152fd5b015193505f8062000109565b9190601f19841692875f5284875f20945f5b898983831062000281575050501062000267575b50505050811b01825562000118565b01519060f8845f19921b161c191690555f80808062000258565b86860151895590970196948501948893500162000244565b875f52865f208380870160051c820192898810620002d7575b0160051c019086905b828110620002cb575050620000ee565b5f8155018690620002bb565b92508192620002b2565b602288634e487b7160e01b5f525260245ffd5b90607f1690620000dc565b604187634e487b7160e01b5f525260245ffd5b015190505f80620000b1565b90889350601f19831691875f528a5f20925f5b8c8282106200036a575050841162000352575b505050811b018355620000c2565b01515f1983881b60f8161c191690555f808062000344565b8385015186558c9790950194938401930162000331565b909150855f52885f208580850160051c8201928b8610620003ca575b918a91869594930160051c01915b828110620003bb5750506200009b565b5f81558594508a9101620003ab565b925081926200039d565b602289634e487b7160e01b5f525260245ffd5b93607f169362000084565b604186634e487b7160e01b5f525260245ffd5b634e487b7160e01b5f52604160045260245ffd5b5f80fdfe60406080815260049081361015610014575f80fd5b5f91823560e01c806306fdde0314610778578063095ea7b3146106cf57806318160ddd146106b057806323b872dd146105be578063313ce5671461059957806340c10f191461048257806342966c681461041057806370a08231146103d9578063715018a61461037957806379cc6790146102a15780638da5cb5b1461027857806395d89b4114610243578063a9059cbb14610212578063abb1dc44146101ad578063dd62ed3e146101605763f2fde38b146100ce575f80fd5b3461015c57602036600319011261015c576100e76107d4565b906100f0610804565b6001600160a01b03918216928315610146575050600554826bffffffffffffffffffffffff60a01b821617600555167f8be0079c531659141344cd1fd0a4f28419497f9722a3daafe3b4186f6b6457e08380a380f35b51631e4fbdf760e01b8152908101849052602490fd5b8280fd5b5050346101a957806003193601126101a9578060209261017e6107d4565b6101866107ee565b6001600160a01b0391821683526001865283832091168252845220549051908152f35b5080fd5b5050346101a957816003193601126101a9576101f7906101cb610830565b906101d4610933565b60ff60055460a01c16610205600254928451968796608088526080880190610796565b908682036020880152610796565b9284015260608301520390f35b5050346101a957806003193601126101a95760209061023c6102326107d4565b60243590336109f1565b5160018152f35b5050346101a957816003193601126101a95761027490610261610933565b9051918291602083526020830190610796565b0390f35b5050346101a957816003193601126101a95760055490516001600160a01b039091168152602090f35b50903461015c578060031936011261015c576102bb6107d4565b602435906102c7610804565b6001600160a01b038116938415610336575090610327817fccbea4088a3b7ae9ca2d15fab9a9742a4075b4d7247768a1eecea917565aba00949361030c821515610acc565b8688528760205261032282868a20541015610b18565b610b5b565b8151908152426020820152a280f35b606490602085519162461bcd60e51b8352820152601d60248201527f43616e6e6f74206275726e2066726f6d207a65726f20616464726573730000006044820152fd5b83346103d657806003193601126103d657610392610804565b600580546001600160a01b0319811690915581906001600160a01b03167f8be0079c531659141344cd1fd0a4f28419497f9722a3daafe3b4186f6b6457e08280a380f35b80fd5b5050346101a95760203660031901126101a95760209181906001600160a01b036104016107d4565b16815280845220549051908152f35b503461015c57602036600319011261015c577fccbea4088a3b7ae9ca2d15fab9a9742a4075b4d7247768a1eecea917565aba00903591610451831515610acc565b3384528360205261046783828620541015610b18565b6104718333610b5b565b80519283524260208401523392a280f35b509190346101a957806003193601126101a95761049d6107d4565b90602435916104aa610804565b6001600160a01b0316918215610556576104c5811515610acc565b60025481810180911161054357907f2e8ac5177a616f2aec08c3048f5021e4e9743ece034e8d83ba5caf76688bb47592916002558385528460205281852081815401905583857fddf252ad1be2c89b69c2b068fc378daa952ba7f163c4a11628f55a4df523b3ef60208551858152a38151908152426020820152a280f35b634e487b7160e01b855260118652602485fd5b815162461bcd60e51b8152602081870152601b60248201527f43616e6e6f74206d696e7420746f207a65726f206164647265737300000000006044820152606490fd5b5050346101a957816003193601126101a95760209060ff60055460a01c169051908152f35b5082346103d65760603660031901126103d6576105d96107d4565b6105e16107ee565b916044359360018060a01b038316808352600160205286832033845260205286832054915f19831061061c575b60208861023c8989896109f1565b86831061068457811561066d5733156106565750825260016020908152868320338452815291869020908590039055829061023c8761060e565b8751634a1406b160e11b8152908101849052602490fd5b875163e602df0560e01b8152908101849052602490fd5b8751637dc7a0d960e11b8152339181019182526020820193909352604081018790528291506060010390fd5b5050346101a957816003193601126101a9576020906002549051908152f35b503461015c578160031936011261015c576106e86107d4565b602435903315610761576001600160a01b031691821561074a57508083602095338152600187528181208582528752205582519081527f8c5be1e5ebec7d5bd14f71427d1e84f3dd0314c0f7b2291e5b200ac8c7c3b925843392a35160018152f35b8351634a1406b160e11b8152908101859052602490fd5b835163e602df0560e01b8152808401869052602490fd5b5050346101a957816003193601126101a95761027490610261610830565b91908251928382525f5b8481106107c0575050825f602080949584010152601f8019910116010190565b6020818301810151848301820152016107a0565b600435906001600160a01b03821682036107ea57565b5f80fd5b602435906001600160a01b03821682036107ea57565b6005546001600160a01b0316330361081857565b60405163118cdaa760e01b8152336004820152602490fd5b604051905f600354600181811c90808316928315610929575b6020938484108114610915578388529081156108f957506001146108a3575b505050829003601f01601f1916820167ffffffffffffffff81118382101761088f57604052565b634e487b7160e01b5f52604160045260245ffd5b60035f908152929350837fc2575a0e9e593c00f959f8c92f12db2869c3395a3b0502d05e2516446f71f85b5b8385106108e557505050508301015f8080610868565b8054888601830152930192849082016108cf565b60ff1916878501525050151560051b84010190505f8080610868565b634e487b7160e01b86526022600452602486fd5b91607f1691610849565b604051905f600454600181811c908083169283156109e7575b6020938484108114610915578388529081156108f9575060011461099157505050829003601f01601f1916820167ffffffffffffffff81118382101761088f57604052565b60045f908152929350837f8a35acfbc15ff81a39ae7d344fd709f28e8600b4aa8c65c6b64bfe7fe36bd19b5b8385106109d357505050508301015f8080610868565b8054888601830152930192849082016109bd565b91607f169161094c565b916001600160a01b03808416928315610ab45716928315610a9c575f9083825281602052604082205490838210610a6a575091604082827fddf252ad1be2c89b69c2b068fc378daa952ba7f163c4a11628f55a4df523b3ef958760209652828652038282205586815220818154019055604051908152a3565b60405163391434e360e21b81526001600160a01b03919091166004820152602481019190915260448101839052606490fd5b60405163ec442f0560e01b81525f6004820152602490fd5b604051634b637e8f60e11b81525f6004820152602490fd5b15610ad357565b60405162461bcd60e51b815260206004820152601d60248201527f416d6f756e74206d7573742062652067726561746572207468616e20300000006044820152606490fd5b15610b1f57565b60405162461bcd60e51b8152602060048201526014602482015273496e73756666696369656e742062616c616e636560601b6044820152606490fd5b906001600160a01b038216908115610ab4575f9282845283602052604084205490828210610bc75750817fddf252ad1be2c89b69c2b068fc378daa952ba7f163c4a11628f55a4df523b3ef926020928587528684520360408620558060025403600255604051908152a3565b60405163391434e360e21b81526001600160a01b03919091166004820152602481019190915260448101829052606490fdfea2646970667358221220102002225a8f067cf33a2c9639583c9f0a61499085932da0872e539a3d23c4ae64736f6c63430008140033","linkReferences":{}},"methodIdentifiers":{"allowance(address,address)":"dd62ed3e","approve(address,uint256)":"095ea7b3","balanceOf(address)":"70a08231","burn(uint256)":"42966c68","burnFrom(address,uint256)":"79cc6790","decimals()":"313ce567","getTokenInfo()":"abb1dc44","mint(address,uint256)":"40c10f19","name()":"06fdde03","owner()":"8da5cb5b","renounceOwnership()":"715018a6","symbol()":"95d89b41","totalSupply()":"18160ddd","transfer(address,uint256)":"a9059cbb","transferFrom(address,address,uint256)":"23b872dd","transferOwnership(address)":"f2fde38b"},"id":30}